{
  "_format": "hh-sol-artifact-1",
  "contractName": "SimpleSwap",
  "sourceName": "contracts/SimpleSwap.sol",
  "abi": [
    {
      "inputs": [
        {
          "internalType": "address",
          "name": "_usdcAddress",
          "type": "address"
        },
        {
          "internalType": "uint256",
          "name": "_initialEthPrice",
          "type": "uint256"
        }
      ],
      "stateMutability": "nonpayable",
      "type": "constructor"
    },
    {
      "anonymous": false,
      "inputs": [
        {
          "indexed": true,
          "internalType": "address",
          "name": "user",
          "type": "address"
        },
        {
          "indexed": true,
          "internalType": "address",
          "name": "fromToken",
          "type": "address"
        },
        {
          "indexed": true,
          "internalType": "address",
          "name": "toToken",
          "type": "address"
        },
        {
          "indexed": false,
          "internalType": "uint256",
          "name": "fromAmount",
          "type": "uint256"
        },
        {
          "indexed": false,
          "internalType": "uint256",
          "name": "toAmount",
          "type": "uint256"
        }
      ],
      "name": "Swapped",
      "type": "event"
    },
    {
      "inputs": [],
      "name": "ethPrice",
      "outputs": [
        {
          "internalType": "uint256",
          "name": "",
          "type": "uint256"
        }
      ],
      "stateMutability": "view",
      "type": "function"
    },
    {
      "inputs": [],
      "name": "getEthPrice",
      "outputs": [
        {
          "internalType": "uint256",
          "name": "",
          "type": "uint256"
        }
      ],
      "stateMutability": "view",
      "type": "function"
    },
    {
      "inputs": [
        {
          "internalType": "uint256",
          "name": "ethAmount",
          "type": "uint256"
        }
      ],
      "name": "getQuoteEthToUsdc",
      "outputs": [
        {
          "internalType": "uint256",
          "name": "",
          "type": "uint256"
        }
      ],
      "stateMutability": "view",
      "type": "function"
    },
    {
      "inputs": [
        {
          "internalType": "uint256",
          "name": "usdcAmount",
          "type": "uint256"
        }
      ],
      "name": "getQuoteUsdcToEth",
      "outputs": [
        {
          "internalType": "uint256",
          "name": "",
          "type": "uint256"
        }
      ],
      "stateMutability": "view",
      "type": "function"
    },
    {
      "inputs": [],
      "name": "swapEthToUsdc",
      "outputs": [
        {
          "internalType": "uint256",
          "name": "",
          "type": "uint256"
        }
      ],
      "stateMutability": "payable",
      "type": "function"
    },
    {
      "inputs": [
        {
          "internalType": "uint256",
          "name": "usdcAmount",
          "type": "uint256"
        }
      ],
      "name": "swapUsdcToEth",
      "outputs": [
        {
          "internalType": "uint256",
          "name": "",
          "type": "uint256"
        }
      ],
      "stateMutability": "nonpayable",
      "type": "function"
    },
    {
      "inputs": [
        {
          "internalType": "uint256",
          "name": "_newPrice",
          "type": "uint256"
        }
      ],
      "name": "updateEthPrice",
      "outputs": [],
      "stateMutability": "nonpayable",
      "type": "function"
    },
    {
      "inputs": [],
      "name": "usdcAddress",
      "outputs": [
        {
          "internalType": "address",
          "name": "",
          "type": "address"
        }
      ],
      "stateMutability": "view",
      "type": "function"
    },
    {
      "stateMutability": "payable",
      "type": "receive"
    }
  ],
  "bytecode": "0x60806040523480156200001157600080fd5b5060405162000da538038062000da583398181016040528101906200003791906200012b565b816000806101000a81548173ffffffffffffffffffffffffffffffffffffffff021916908373ffffffffffffffffffffffffffffffffffffffff16021790555080600181905550505062000172565b600080fd5b600073ffffffffffffffffffffffffffffffffffffffff82169050919050565b6000620000b8826200008b565b9050919050565b620000ca81620000ab565b8114620000d657600080fd5b50565b600081519050620000ea81620000bf565b92915050565b6000819050919050565b6200010581620000f0565b81146200011157600080fd5b50565b6000815190506200012581620000fa565b92915050565b6000806040838503121562000145576200014462000086565b5b60006200015585828601620000d9565b9250506020620001688582860162000114565b9150509250929050565b610c2380620001826000396000f3fe60806040526004361061007f5760003560e01c8063905f12691161004e578063905f12691461014757806396afbf2614610165578063cc85aeaf146101a2578063ff186b2e146101df57610086565b806302d454571461008b57806321370942146100b657806340fbd8fe146100df57806367c9b0171461011c57610086565b3661008657005b600080fd5b34801561009757600080fd5b506100a061020a565b6040516100ad919061077a565b60405180910390f35b3480156100c257600080fd5b506100dd60048036038101906100d891906107d0565b61022e565b005b3480156100eb57600080fd5b50610106600480360381019061010191906107d0565b610238565b604051610113919061080c565b60405180910390f35b34801561012857600080fd5b50610131610262565b60405161013e919061080c565b60405180910390f35b61014f61026c565b60405161015c919061080c565b60405180910390f35b34801561017157600080fd5b5061018c600480360381019061018791906107d0565b610465565b604051610199919061080c565b60405180910390f35b3480156101ae57600080fd5b506101c960048036038101906101c491906107d0565b61048f565b6040516101d6919061080c565b60405180910390f35b3480156101eb57600080fd5b506101f4610733565b604051610201919061080c565b60405180910390f35b60008054906101000a900473ffffffffffffffffffffffffffffffffffffffff1681565b8060018190555050565b6000600154670de0b6b3a7640000836102519190610856565b61025b91906108c7565b9050919050565b6000600154905090565b60008034116102b0576040517f08c379a00000000000000000000000000000000000000000000000000000000081526004016102a790610955565b60405180910390fd5b60003490506000670de0b6b3a7640000600154836102ce9190610856565b6102d891906108c7565b905060008060009054906101000a900473ffffffffffffffffffffffffffffffffffffffff1690508073ffffffffffffffffffffffffffffffffffffffff1663a9059cbb33846040518363ffffffff1660e01b815260040161033b929190610975565b6020604051808303816000875af115801561035a573d6000803e3d6000fd5b505050506040513d601f19601f8201168201806040525081019061037e91906109d6565b6103bd576040517f08c379a00000000000000000000000000000000000000000000000000000000081526004016103b490610a4f565b60405180910390fd5b60008054906101000a900473ffffffffffffffffffffffffffffffffffffffff1673ffffffffffffffffffffffffffffffffffffffff16600073ffffffffffffffffffffffffffffffffffffffff163373ffffffffffffffffffffffffffffffffffffffff167f6782190c91d4a7e8ad2a867deed6ec0a970cab8ff137ae2bd4abd92b3810f4d38686604051610454929190610a6f565b60405180910390a481935050505090565b6000670de0b6b3a76400006001548361047e9190610856565b61048891906108c7565b9050919050565b60008082116104d3576040517f08c379a00000000000000000000000000000000000000000000000000000000081526004016104ca90610ae4565b60405180910390fd5b60008060009054906101000a900473ffffffffffffffffffffffffffffffffffffffff1690508073ffffffffffffffffffffffffffffffffffffffff166323b872dd3330866040518463ffffffff1660e01b815260040161053693929190610b04565b6020604051808303816000875af1158015610555573d6000803e3d6000fd5b505050506040513d601f19601f8201168201806040525081019061057991906109d6565b6105b8576040517f08c379a00000000000000000000000000000000000000000000000000000000081526004016105af90610a4f565b60405180910390fd5b6000600154670de0b6b3a7640000856105d19190610856565b6105db91906108c7565b905060003373ffffffffffffffffffffffffffffffffffffffff168260405161060390610b6c565b60006040518083038185875af1925050503d8060008114610640576040519150601f19603f3d011682016040523d82523d6000602084013e610645565b606091505b5050905080610689576040517f08c379a000000000000000000000000000000000000000000000000000000000815260040161068090610bcd565b60405180910390fd5b600073ffffffffffffffffffffffffffffffffffffffff1660008054906101000a900473ffffffffffffffffffffffffffffffffffffffff1673ffffffffffffffffffffffffffffffffffffffff163373ffffffffffffffffffffffffffffffffffffffff167f6782190c91d4a7e8ad2a867deed6ec0a970cab8ff137ae2bd4abd92b3810f4d38886604051610720929190610a6f565b60405180910390a4819350505050919050565b60015481565b600073ffffffffffffffffffffffffffffffffffffffff82169050919050565b600061076482610739565b9050919050565b61077481610759565b82525050565b600060208201905061078f600083018461076b565b92915050565b600080fd5b6000819050919050565b6107ad8161079a565b81146107b857600080fd5b50565b6000813590506107ca816107a4565b92915050565b6000602082840312156107e6576107e5610795565b5b60006107f4848285016107bb565b91505092915050565b6108068161079a565b82525050565b600060208201905061082160008301846107fd565b92915050565b7f4e487b7100000000000000000000000000000000000000000000000000000000600052601160045260246000fd5b60006108618261079a565b915061086c8361079a565b925082820261087a8161079a565b9150828204841483151761089157610890610827565b5b5092915050565b7f4e487b7100000000000000000000000000000000000000000000000000000000600052601260045260246000fd5b60006108d28261079a565b91506108dd8361079a565b9250826108ed576108ec610898565b5b828204905092915050565b600082825260208201905092915050565b7f4d7573742073656e642045544800000000000000000000000000000000000000600082015250565b600061093f600d836108f8565b915061094a82610909565b602082019050919050565b6000602082019050818103600083015261096e81610932565b9050919050565b600060408201905061098a600083018561076b565b61099760208301846107fd565b9392505050565b60008115159050919050565b6109b38161099e565b81146109be57600080fd5b50565b6000815190506109d0816109aa565b92915050565b6000602082840312156109ec576109eb610795565b5b60006109fa848285016109c1565b91505092915050565b7f55534443207472616e73666572206661696c6564000000000000000000000000600082015250565b6000610a396014836108f8565b9150610a4482610a03565b602082019050919050565b60006020820190508181036000830152610a6881610a2c565b9050919050565b6000604082019050610a8460008301856107fd565b610a9160208301846107fd565b9392505050565b7f4d7573742073656e642055534443000000000000000000000000000000000000600082015250565b6000610ace600e836108f8565b9150610ad982610a98565b602082019050919050565b60006020820190508181036000830152610afd81610ac1565b9050919050565b6000606082019050610b19600083018661076b565b610b26602083018561076b565b610b3360408301846107fd565b949350505050565b600081905092915050565b50565b6000610b56600083610b3b565b9150610b6182610b46565b600082019050919050565b6000610b7782610b49565b9150819050919050565b7f455448207472616e73666572206661696c656400000000000000000000000000600082015250565b6000610bb76013836108f8565b9150610bc282610b81565b602082019050919050565b60006020820190508181036000830152610be681610baa565b905091905056fea2646970667358221220904445e21f9be7d156d4c4a06db6f2c97040198ed8ae74b761918df7c2693b7b64736f6c63430008130033",
  "linkReferences": {},
  "deployedLinkReferences": {}
}