{
  "_format": "hh-sol-artifact-1",
  "contractName": "SimpleSwap",
  "sourceName": "contracts/SimpleSwap.sol",
  "abi": [
    {
      "inputs": [
        {
          "internalType": "address",
          "name": "_usdcAddress",
          "type": "address"
        },
        {
          "internalType": "uint256",
          "name": "_initialEthPrice",
          "type": "uint256"
        }
      ],
      "stateMutability": "nonpayable",
      "type": "constructor"
    },
    {
      "anonymous": false,
      "inputs": [
        {
          "indexed": true,
          "internalType": "address",
          "name": "user",
          "type": "address"
        },
        {
          "indexed": true,
          "internalType": "address",
          "name": "fromToken",
          "type": "address"
        },
        {
          "indexed": true,
          "internalType": "address",
          "name": "toToken",
          "type": "address"
        },
        {
          "indexed": false,
          "internalType": "uint256",
          "name": "fromAmount",
          "type": "uint256"
        },
        {
          "indexed": false,
          "internalType": "uint256",
          "name": "toAmount",
          "type": "uint256"
        }
      ],
      "name": "Swapped",
      "type": "event"
    },
    {
      "inputs": [],
      "name": "SLIPPAGE_BPS",
      "outputs": [
        {
          "internalType": "uint256",
          "name": "",
          "type": "uint256"
        }
      ],
      "stateMutability": "view",
      "type": "function"
    },
    {
      "inputs": [],
      "name": "ethPrice",
      "outputs": [
        {
          "internalType": "uint256",
          "name": "",
          "type": "uint256"
        }
      ],
      "stateMutability": "view",
      "type": "function"
    },
    {
      "inputs": [],
      "name": "getEthPrice",
      "outputs": [
        {
          "internalType": "uint256",
          "name": "",
          "type": "uint256"
        }
      ],
      "stateMutability": "view",
      "type": "function"
    },
    {
      "inputs": [
        {
          "internalType": "uint256",
          "name": "ethAmount",
          "type": "uint256"
        }
      ],
      "name": "getQuoteEthToUsdc",
      "outputs": [
        {
          "internalType": "uint256",
          "name": "",
          "type": "uint256"
        }
      ],
      "stateMutability": "view",
      "type": "function"
    },
    {
      "inputs": [
        {
          "internalType": "uint256",
          "name": "usdcAmount",
          "type": "uint256"
        }
      ],
      "name": "getQuoteUsdcToEth",
      "outputs": [
        {
          "internalType": "uint256",
          "name": "",
          "type": "uint256"
        }
      ],
      "stateMutability": "view",
      "type": "function"
    },
    {
      "inputs": [],
      "name": "swapEthToUsdc",
      "outputs": [
        {
          "internalType": "uint256",
          "name": "",
          "type": "uint256"
        }
      ],
      "stateMutability": "payable",
      "type": "function"
    },
    {
      "inputs": [
        {
          "internalType": "uint256",
          "name": "usdcAmount",
          "type": "uint256"
        }
      ],
      "name": "swapUsdcToEth",
      "outputs": [
        {
          "internalType": "uint256",
          "name": "",
          "type": "uint256"
        }
      ],
      "stateMutability": "nonpayable",
      "type": "function"
    },
    {
      "inputs": [
        {
          "internalType": "uint256",
          "name": "_newPrice",
          "type": "uint256"
        }
      ],
      "name": "updateEthPrice",
      "outputs": [],
      "stateMutability": "nonpayable",
      "type": "function"
    },
    {
      "inputs": [],
      "name": "usdcAddress",
      "outputs": [
        {
          "internalType": "address",
          "name": "",
          "type": "address"
        }
      ],
      "stateMutability": "view",
      "type": "function"
    },
    {
      "stateMutability": "payable",
      "type": "receive"
    }
  ],
  "bytecode": "0x60806040523480156200001157600080fd5b5060405162000fa438038062000fa4833981810160405281019062000037919062000134565b600160008190555081600160006101000a81548173ffffffffffffffffffffffffffffffffffffffff021916908373ffffffffffffffffffffffffffffffffffffffff1602179055508060028190555050506200017b565b600080fd5b600073ffffffffffffffffffffffffffffffffffffffff82169050919050565b6000620000c18262000094565b9050919050565b620000d381620000b4565b8114620000df57600080fd5b50565b600081519050620000f381620000c8565b92915050565b6000819050919050565b6200010e81620000f9565b81146200011a57600080fd5b50565b6000815190506200012e8162000103565b92915050565b600080604083850312156200014e576200014d6200008f565b5b60006200015e85828601620000e2565b925050602062000171858286016200011d565b9150509250929050565b610e19806200018b6000396000f3fe60806040526004361061008a5760003560e01c806377f8bb6d1161005957806377f8bb6d14610152578063905f12691461017d57806396afbf261461019b578063cc85aeaf146101d8578063ff186b2e1461021557610091565b806302d454571461009657806321370942146100c157806340fbd8fe146100ea57806367c9b0171461012757610091565b3661009157005b600080fd5b3480156100a257600080fd5b506100ab610240565b6040516100b891906108d0565b60405180910390f35b3480156100cd57600080fd5b506100e860048036038101906100e39190610926565b610266565b005b3480156100f657600080fd5b50610111600480360381019061010c9190610926565b610270565b60405161011e9190610962565b60405180910390f35b34801561013357600080fd5b5061013c6102c0565b6040516101499190610962565b60405180910390f35b34801561015e57600080fd5b506101676102ca565b6040516101749190610962565b60405180910390f35b6101856102cf565b6040516101929190610962565b60405180910390f35b3480156101a757600080fd5b506101c260048036038101906101bd9190610926565b610502565b6040516101cf9190610962565b60405180910390f35b3480156101e457600080fd5b506101ff60048036038101906101fa9190610926565b610552565b60405161020c9190610962565b60405180910390f35b34801561022157600080fd5b5061022a610830565b6040516102379190610962565b60405180910390f35b600160009054906101000a900473ffffffffffffffffffffffffffffffffffffffff1681565b8060028190555050565b600061271060025461028291906109ac565b603261271061029191906109ee565b670de0b6b3a7640000846102a591906109ac565b6102af91906109ac565b6102b99190610a51565b9050919050565b6000600254905090565b603281565b60006102d9610836565b6000341161031c576040517f08c379a000000000000000000000000000000000000000000000000000000000815260040161031390610adf565b60405180910390fd5b60003490506000612710670de0b6b3a7640000603261271061033e91906109ee565b6002548561034c91906109ac565b61035691906109ac565b6103609190610a51565b61036a9190610a51565b90506000600160009054906101000a900473ffffffffffffffffffffffffffffffffffffffff1690508073ffffffffffffffffffffffffffffffffffffffff1663a9059cbb33846040518363ffffffff1660e01b81526004016103ce929190610aff565b6020604051808303816000875af11580156103ed573d6000803e3d6000fd5b505050506040513d601f19601f820116820180604052508101906104119190610b60565b610450576040517f08c379a000000000000000000000000000000000000000000000000000000000815260040161044790610bd9565b60405180910390fd5b600160009054906101000a900473ffffffffffffffffffffffffffffffffffffffff1673ffffffffffffffffffffffffffffffffffffffff16600073ffffffffffffffffffffffffffffffffffffffff163373ffffffffffffffffffffffffffffffffffffffff167f6782190c91d4a7e8ad2a867deed6ec0a970cab8ff137ae2bd4abd92b3810f4d386866040516104e9929190610bf9565b60405180910390a48193505050506104ff610885565b90565b6000612710670de0b6b3a7640000603261271061051f91906109ee565b6002548561052d91906109ac565b61053791906109ac565b6105419190610a51565b61054b9190610a51565b9050919050565b600061055c610836565b6000821161059f576040517f08c379a000000000000000000000000000000000000000000000000000000000815260040161059690610c6e565b60405180910390fd5b6000600160009054906101000a900473ffffffffffffffffffffffffffffffffffffffff1690508073ffffffffffffffffffffffffffffffffffffffff166323b872dd3330866040518463ffffffff1660e01b815260040161060393929190610c8e565b6020604051808303816000875af1158015610622573d6000803e3d6000fd5b505050506040513d601f19601f820116820180604052508101906106469190610b60565b610685576040517f08c379a000000000000000000000000000000000000000000000000000000000815260040161067c90610bd9565b60405180910390fd5b600061271060025461069791906109ac565b60326127106106a691906109ee565b670de0b6b3a7640000866106ba91906109ac565b6106c491906109ac565b6106ce9190610a51565b905060003373ffffffffffffffffffffffffffffffffffffffff16826040516106f690610cf6565b60006040518083038185875af1925050503d8060008114610733576040519150601f19603f3d011682016040523d82523d6000602084013e610738565b606091505b505090508061077c576040517f08c379a000000000000000000000000000000000000000000000000000000000815260040161077390610d57565b60405180910390fd5b600073ffffffffffffffffffffffffffffffffffffffff16600160009054906101000a900473ffffffffffffffffffffffffffffffffffffffff1673ffffffffffffffffffffffffffffffffffffffff163373ffffffffffffffffffffffffffffffffffffffff167f6782190c91d4a7e8ad2a867deed6ec0a970cab8ff137ae2bd4abd92b3810f4d38886604051610815929190610bf9565b60405180910390a481935050505061082b610885565b919050565b60025481565b60026000540361087b576040517f08c379a000000000000000000000000000000000000000000000000000000000815260040161087290610dc3565b60405180910390fd5b6002600081905550565b6001600081905550565b600073ffffffffffffffffffffffffffffffffffffffff82169050919050565b60006108ba8261088f565b9050919050565b6108ca816108af565b82525050565b60006020820190506108e560008301846108c1565b92915050565b600080fd5b6000819050919050565b610903816108f0565b811461090e57600080fd5b50565b600081359050610920816108fa565b92915050565b60006020828403121561093c5761093b6108eb565b5b600061094a84828501610911565b91505092915050565b61095c816108f0565b82525050565b60006020820190506109776000830184610953565b92915050565b7f4e487b7100000000000000000000000000000000000000000000000000000000600052601160045260246000fd5b60006109b7826108f0565b91506109c2836108f0565b92508282026109d0816108f0565b915082820484148315176109e7576109e661097d565b5b5092915050565b60006109f9826108f0565b9150610a04836108f0565b9250828203905081811115610a1c57610a1b61097d565b5b92915050565b7f4e487b7100000000000000000000000000000000000000000000000000000000600052601260045260246000fd5b6000610a5c826108f0565b9150610a67836108f0565b925082610a7757610a76610a22565b5b828204905092915050565b600082825260208201905092915050565b7f4d7573742073656e642045544800000000000000000000000000000000000000600082015250565b6000610ac9600d83610a82565b9150610ad482610a93565b602082019050919050565b60006020820190508181036000830152610af881610abc565b9050919050565b6000604082019050610b1460008301856108c1565b610b216020830184610953565b9392505050565b60008115159050919050565b610b3d81610b28565b8114610b4857600080fd5b50565b600081519050610b5a81610b34565b92915050565b600060208284031215610b7657610b756108eb565b5b6000610b8484828501610b4b565b91505092915050565b7f55534443207472616e73666572206661696c6564000000000000000000000000600082015250565b6000610bc3601483610a82565b9150610bce82610b8d565b602082019050919050565b60006020820190508181036000830152610bf281610bb6565b9050919050565b6000604082019050610c0e6000830185610953565b610c1b6020830184610953565b9392505050565b7f4d7573742073656e642055534443000000000000000000000000000000000000600082015250565b6000610c58600e83610a82565b9150610c6382610c22565b602082019050919050565b60006020820190508181036000830152610c8781610c4b565b9050919050565b6000606082019050610ca360008301866108c1565b610cb060208301856108c1565b610cbd6040830184610953565b949350505050565b600081905092915050565b50565b6000610ce0600083610cc5565b9150610ceb82610cd0565b600082019050919050565b6000610d0182610cd3565b9150819050919050565b7f455448207472616e73666572206661696c656400000000000000000000000000600082015250565b6000610d41601383610a82565b9150610d4c82610d0b565b602082019050919050565b60006020820190508181036000830152610d7081610d34565b9050919050565b7f5265656e7472616e637947756172643a207265656e7472616e742063616c6c00600082015250565b6000610dad601f83610a82565b9150610db882610d77565b602082019050919050565b60006020820190508181036000830152610ddc81610da0565b905091905056fea26469706673582212200e78fa3d686a6ff1df6d1a11497cb2b1658ac953a04e32cd14ecc693334e95d664736f6c63430008130033",
  "linkReferences": {},
  "deployedLinkReferences": {}
}