{
  "_format": "hh-sol-artifact-1",
  "contractName": "SmartAccount",
  "sourceName": "contracts/SmartAccount.sol",
  "abi": [
    {
      "inputs": [],
      "stateMutability": "nonpayable",
      "type": "constructor"
    },
    {
      "anonymous": false,
      "inputs": [
        {
          "indexed": false,
          "internalType": "uint256",
          "name": "txCount",
          "type": "uint256"
        }
      ],
      "name": "BatchExecuted",
      "type": "event"
    },
    {
      "anonymous": false,
      "inputs": [
        {
          "indexed": true,
          "internalType": "address",
          "name": "target",
          "type": "address"
        },
        {
          "indexed": false,
          "internalType": "uint256",
          "name": "value",
          "type": "uint256"
        },
        {
          "indexed": false,
          "internalType": "bytes",
          "name": "data",
          "type": "bytes"
        }
      ],
      "name": "Executed",
      "type": "event"
    },
    {
      "anonymous": false,
      "inputs": [
        {
          "indexed": true,
          "internalType": "enum SmartAccount.Feature",
          "name": "feature",
          "type": "uint8"
        }
      ],
      "name": "FeatureEnabled",
      "type": "event"
    },
    {
      "anonymous": false,
      "inputs": [
        {
          "indexed": true,
          "internalType": "address",
          "name": "sessionKey",
          "type": "address"
        },
        {
          "indexed": false,
          "internalType": "uint256",
          "name": "expiry",
          "type": "uint256"
        }
      ],
      "name": "SessionKeyAdded",
      "type": "event"
    },
    {
      "anonymous": false,
      "inputs": [
        {
          "indexed": true,
          "internalType": "address",
          "name": "sessionKey",
          "type": "address"
        }
      ],
      "name": "SessionKeyRemoved",
      "type": "event"
    },
    {
      "inputs": [
        {
          "internalType": "address",
          "name": "sessionKey",
          "type": "address"
        },
        {
          "internalType": "uint256",
          "name": "expiry",
          "type": "uint256"
        }
      ],
      "name": "addSessionKey",
      "outputs": [],
      "stateMutability": "nonpayable",
      "type": "function"
    },
    {
      "inputs": [
        {
          "internalType": "enum SmartAccount.Feature",
          "name": "feature",
          "type": "uint8"
        }
      ],
      "name": "enableFeature",
      "outputs": [],
      "stateMutability": "nonpayable",
      "type": "function"
    },
    {
      "inputs": [
        {
          "internalType": "enum SmartAccount.Feature",
          "name": "",
          "type": "uint8"
        }
      ],
      "name": "enabledFeatures",
      "outputs": [
        {
          "internalType": "bool",
          "name": "",
          "type": "bool"
        }
      ],
      "stateMutability": "view",
      "type": "function"
    },
    {
      "inputs": [
        {
          "internalType": "address",
          "name": "target",
          "type": "address"
        },
        {
          "internalType": "uint256",
          "name": "value",
          "type": "uint256"
        },
        {
          "internalType": "bytes",
          "name": "data",
          "type": "bytes"
        }
      ],
      "name": "execute",
      "outputs": [
        {
          "internalType": "bytes",
          "name": "",
          "type": "bytes"
        }
      ],
      "stateMutability": "nonpayable",
      "type": "function"
    },
    {
      "inputs": [
        {
          "internalType": "address[]",
          "name": "targets",
          "type": "address[]"
        },
        {
          "internalType": "uint256[]",
          "name": "values",
          "type": "uint256[]"
        },
        {
          "internalType": "bytes[]",
          "name": "datas",
          "type": "bytes[]"
        }
      ],
      "name": "executeBatch",
      "outputs": [
        {
          "internalType": "bytes[]",
          "name": "",
          "type": "bytes[]"
        }
      ],
      "stateMutability": "nonpayable",
      "type": "function"
    },
    {
      "inputs": [
        {
          "internalType": "address",
          "name": "gasToken",
          "type": "address"
        },
        {
          "internalType": "uint256",
          "name": "gasAmount",
          "type": "uint256"
        },
        {
          "internalType": "address[]",
          "name": "targets",
          "type": "address[]"
        },
        {
          "internalType": "uint256[]",
          "name": "values",
          "type": "uint256[]"
        },
        {
          "internalType": "bytes[]",
          "name": "datas",
          "type": "bytes[]"
        }
      ],
      "name": "executeBatchWithGasToken",
      "outputs": [
        {
          "internalType": "bytes[]",
          "name": "",
          "type": "bytes[]"
        }
      ],
      "stateMutability": "nonpayable",
      "type": "function"
    },
    {
      "inputs": [
        {
          "internalType": "address",
          "name": "gasToken",
          "type": "address"
        },
        {
          "internalType": "uint256",
          "name": "gasAmount",
          "type": "uint256"
        },
        {
          "internalType": "address",
          "name": "target",
          "type": "address"
        },
        {
          "internalType": "uint256",
          "name": "value",
          "type": "uint256"
        },
        {
          "internalType": "bytes",
          "name": "data",
          "type": "bytes"
        }
      ],
      "name": "executeWithGasToken",
      "outputs": [
        {
          "internalType": "bytes",
          "name": "",
          "type": "bytes"
        }
      ],
      "stateMutability": "nonpayable",
      "type": "function"
    },
    {
      "inputs": [],
      "name": "owner",
      "outputs": [
        {
          "internalType": "address",
          "name": "",
          "type": "address"
        }
      ],
      "stateMutability": "view",
      "type": "function"
    },
    {
      "inputs": [
        {
          "internalType": "address",
          "name": "sessionKey",
          "type": "address"
        }
      ],
      "name": "removeSessionKey",
      "outputs": [],
      "stateMutability": "nonpayable",
      "type": "function"
    },
    {
      "inputs": [
        {
          "internalType": "address",
          "name": "",
          "type": "address"
        }
      ],
      "name": "sessionKeys",
      "outputs": [
        {
          "internalType": "uint256",
          "name": "",
          "type": "uint256"
        }
      ],
      "stateMutability": "view",
      "type": "function"
    },
    {
      "inputs": [
        {
          "internalType": "address",
          "name": "newOwner",
          "type": "address"
        }
      ],
      "name": "transferOwnership",
      "outputs": [],
      "stateMutability": "nonpayable",
      "type": "function"
    },
    {
      "stateMutability": "payable",
      "type": "receive"
    }
  ],
  "bytecode": "0x608060405234801561001057600080fd5b50336000806101000a81548173ffffffffffffffffffffffffffffffffffffffff021916908373ffffffffffffffffffffffffffffffffffffffff160217905550612815806100606000396000f3fe6080604052600436106100a05760003560e01c80638da5cb5b116100645780638da5cb5b146101b5578063b61d27f6146101e0578063b7b8d6041461021d578063bf9890ab1461025a578063e147e48014610283578063f2fde38b146102c0576100a7565b80631df6a812146100ac57806327a00ae4146100e957806347e1da2a1461012657806368c0006d146101635780638195e50f1461018c576100a7565b366100a757005b600080fd5b3480156100b857600080fd5b506100d360048036038101906100ce9190611919565b6102e9565b6040516100e09190611b47565b60405180910390f35b3480156100f557600080fd5b50610110600480360381019061010b9190611b8e565b610861565b60405161011d9190611bd6565b60405180910390f35b34801561013257600080fd5b5061014d60048036038101906101489190611bf1565b610881565b60405161015a9190611b47565b60405180910390f35b34801561016f57600080fd5b5061018a60048036038101906101859190611b8e565b610c2d565b005b34801561019857600080fd5b506101b360048036038101906101ae9190611ca5565b610d4d565b005b3480156101c157600080fd5b506101ca610f37565b6040516101d79190611cf4565b60405180910390f35b3480156101ec57600080fd5b5061020760048036038101906102029190611d65565b610f5b565b6040516102149190611e23565b60405180910390f35b34801561022957600080fd5b50610244600480360381019061023f9190611e45565b611145565b6040516102519190611e81565b60405180910390f35b34801561026657600080fd5b50610281600480360381019061027c9190611e45565b61115d565b005b34801561028f57600080fd5b506102aa60048036038101906102a59190611e9c565b611274565b6040516102b79190611e23565b60405180910390f35b3480156102cc57600080fd5b506102e760048036038101906102e29190611e45565b61162a565b005b606060008054906101000a900473ffffffffffffffffffffffffffffffffffffffff1673ffffffffffffffffffffffffffffffffffffffff163373ffffffffffffffffffffffffffffffffffffffff161480610383575042600160003373ffffffffffffffffffffffffffffffffffffffff1673ffffffffffffffffffffffffffffffffffffffff16815260200190815260200160002054115b6103c2576040517f08c379a00000000000000000000000000000000000000000000000000000000081526004016103b990611fb9565b60405180910390fd5b60026000600160028111156103da576103d9611fd9565b5b60028111156103ec576103eb611fd9565b5b815260200190815260200160002060009054906101000a900460ff16610447576040517f08c379a000000000000000000000000000000000000000000000000000000000815260040161043e9061207a565b60405180910390fd5b6002600060028081111561045e5761045d611fd9565b5b60028111156104705761046f611fd9565b5b815260200190815260200160002060009054906101000a900460ff166104cb576040517f08c379a00000000000000000000000000000000000000000000000000000000081526004016104c29061210c565b60405180910390fd5b84849050878790501480156104e557508282905085859050145b610524576040517f08c379a000000000000000000000000000000000000000000000000000000000815260040161051b9061219e565b60405180910390fd5b600033896040516024016105399291906121be565b6040516020818303038152906040527fa9059cbb000000000000000000000000000000000000000000000000000000007bffffffffffffffffffffffffffffffffffffffffffffffffffffffff19166020820180517bffffffffffffffffffffffffffffffffffffffffffffffffffffffff838183161783525050505090506000808b73ffffffffffffffffffffffffffffffffffffffff16836040516105e09190612223565b6000604051808303816000865af19150503d806000811461061d576040519150601f19603f3d011682016040523d82523d6000602084013e610622565b606091505b509150915081610667576040517f08c379a000000000000000000000000000000000000000000000000000000000815260040161065e90612286565b60405180910390fd5b60008a8a905067ffffffffffffffff811115610686576106856122a6565b5b6040519080825280602002602001820160405280156106b957816020015b60608152602001906001900390816106a45790505b50905060005b8b8b9050811015610813576000808d8d848181106106e0576106df6122d5565b5b90506020020160208101906106f59190611e45565b73ffffffffffffffffffffffffffffffffffffffff168c8c8581811061071e5761071d6122d5565b5b905060200201358b8b86818110610738576107376122d5565b5b905060200281019061074a9190612313565b6040516107589291906123aa565b60006040518083038185875af1925050503d8060008114610795576040519150601f19603f3d011682016040523d82523d6000602084013e61079a565b606091505b5091509150816107df576040517f08c379a00000000000000000000000000000000000000000000000000000000081526004016107d690612435565b60405180910390fd5b808484815181106107f3576107f26122d5565b5b60200260200101819052505050808061080b90612484565b9150506106bf565b507fe9cc9bbe7de1cbb097a6357ca3182909488efe8d793e25665befc064a02d10a78b8b90506040516108469190611e81565b60405180910390a18094505050505098975050505050505050565b60026020528060005260406000206000915054906101000a900460ff1681565b606060008054906101000a900473ffffffffffffffffffffffffffffffffffffffff1673ffffffffffffffffffffffffffffffffffffffff163373ffffffffffffffffffffffffffffffffffffffff16148061091b575042600160003373ffffffffffffffffffffffffffffffffffffffff1673ffffffffffffffffffffffffffffffffffffffff16815260200190815260200160002054115b61095a576040517f08c379a000000000000000000000000000000000000000000000000000000000815260040161095190611fb9565b60405180910390fd5b600260006001600281111561097257610971611fd9565b5b600281111561098457610983611fd9565b5b815260200190815260200160002060009054906101000a900460ff166109df576040517f08c379a00000000000000000000000000000000000000000000000000000000081526004016109d69061207a565b60405180910390fd5b84849050878790501480156109f957508282905085859050145b610a38576040517f08c379a0000000000000000000000000000000000000000000000000000000008152600401610a2f9061219e565b60405180910390fd5b60008787905067ffffffffffffffff811115610a5757610a566122a6565b5b604051908082528060200260200182016040528015610a8a57816020015b6060815260200190600190039081610a755790505b50905060005b88889050811015610be4576000808a8a84818110610ab157610ab06122d5565b5b9050602002016020810190610ac69190611e45565b73ffffffffffffffffffffffffffffffffffffffff16898985818110610aef57610aee6122d5565b5b90506020020135888886818110610b0957610b086122d5565b5b9050602002810190610b1b9190612313565b604051610b299291906123aa565b60006040518083038185875af1925050503d8060008114610b66576040519150601f19603f3d011682016040523d82523d6000602084013e610b6b565b606091505b509150915081610bb0576040517f08c379a0000000000000000000000000000000000000000000000000000000008152600401610ba790612435565b60405180910390fd5b80848481518110610bc457610bc36122d5565b5b602002602001018190525050508080610bdc90612484565b915050610a90565b507fe9cc9bbe7de1cbb097a6357ca3182909488efe8d793e25665befc064a02d10a788889050604051610c179190611e81565b60405180910390a1809150509695505050505050565b60008054906101000a900473ffffffffffffffffffffffffffffffffffffffff1673ffffffffffffffffffffffffffffffffffffffff163373ffffffffffffffffffffffffffffffffffffffff1614610cbb576040517f08c379a0000000000000000000000000000000000000000000000000000000008152600401610cb29061253e565b60405180910390fd5b600160026000836002811115610cd457610cd3611fd9565b5b6002811115610ce657610ce5611fd9565b5b815260200190815260200160002060006101000a81548160ff021916908315150217905550806002811115610d1e57610d1d611fd9565b5b7f84295ea1e27f46ce562d1a89e79738c9e730c68ffdb61c9e969e97f82487357b60405160405180910390a250565b60008054906101000a900473ffffffffffffffffffffffffffffffffffffffff1673ffffffffffffffffffffffffffffffffffffffff163373ffffffffffffffffffffffffffffffffffffffff1614610ddb576040517f08c379a0000000000000000000000000000000000000000000000000000000008152600401610dd29061253e565b60405180910390fd5b60026000806002811115610df257610df1611fd9565b5b6002811115610e0457610e03611fd9565b5b815260200190815260200160002060009054906101000a900460ff16610e5f576040517f08c379a0000000000000000000000000000000000000000000000000000000008152600401610e56906125d0565b60405180910390fd5b428111610ea1576040517f08c379a0000000000000000000000000000000000000000000000000000000008152600401610e9890612662565b60405180910390fd5b80600160008473ffffffffffffffffffffffffffffffffffffffff1673ffffffffffffffffffffffffffffffffffffffff168152602001908152602001600020819055508173ffffffffffffffffffffffffffffffffffffffff167ffcf0ccc5211f51dd30dec2cc2818afc3f1283885d3070059a86e8e2b05cf1b0182604051610f2b9190611e81565b60405180910390a25050565b60008054906101000a900473ffffffffffffffffffffffffffffffffffffffff1681565b606060008054906101000a900473ffffffffffffffffffffffffffffffffffffffff1673ffffffffffffffffffffffffffffffffffffffff163373ffffffffffffffffffffffffffffffffffffffff161480610ff5575042600160003373ffffffffffffffffffffffffffffffffffffffff1673ffffffffffffffffffffffffffffffffffffffff16815260200190815260200160002054115b611034576040517f08c379a000000000000000000000000000000000000000000000000000000000815260040161102b90611fb9565b60405180910390fd5b6000808673ffffffffffffffffffffffffffffffffffffffff1686868660405161105f9291906123aa565b60006040518083038185875af1925050503d806000811461109c576040519150601f19603f3d011682016040523d82523d6000602084013e6110a1565b606091505b5091509150816110e6576040517f08c379a00000000000000000000000000000000000000000000000000000000081526004016110dd906126ce565b60405180910390fd5b8673ffffffffffffffffffffffffffffffffffffffff167fcaf938de11c367272220bfd1d2baa99ca46665e7bc4d85f00adb51b90fe1fa9f8787876040516111309392919061271b565b60405180910390a28092505050949350505050565b60016020528060005260406000206000915090505481565b60008054906101000a900473ffffffffffffffffffffffffffffffffffffffff1673ffffffffffffffffffffffffffffffffffffffff163373ffffffffffffffffffffffffffffffffffffffff16146111eb576040517f08c379a00000000000000000000000000000000000000000000000000000000081526004016111e29061253e565b60405180910390fd5b600160008273ffffffffffffffffffffffffffffffffffffffff1673ffffffffffffffffffffffffffffffffffffffff168152602001908152602001600020600090558073ffffffffffffffffffffffffffffffffffffffff167f827105b0db5c62d83203be159279cf30a9457305ecb14bbbeda1d695a9f1463160405160405180910390a250565b606060008054906101000a900473ffffffffffffffffffffffffffffffffffffffff1673ffffffffffffffffffffffffffffffffffffffff163373ffffffffffffffffffffffffffffffffffffffff16148061130e575042600160003373ffffffffffffffffffffffffffffffffffffffff1673ffffffffffffffffffffffffffffffffffffffff16815260200190815260200160002054115b61134d576040517f08c379a000000000000000000000000000000000000000000000000000000000815260040161134490611fb9565b60405180910390fd5b6002600060028081111561136457611363611fd9565b5b600281111561137657611375611fd9565b5b815260200190815260200160002060009054906101000a900460ff166113d1576040517f08c379a00000000000000000000000000000000000000000000000000000000081526004016113c89061210c565b60405180910390fd5b600033876040516024016113e69291906121be565b6040516020818303038152906040527fa9059cbb000000000000000000000000000000000000000000000000000000007bffffffffffffffffffffffffffffffffffffffffffffffffffffffff19166020820180517bffffffffffffffffffffffffffffffffffffffffffffffffffffffff838183161783525050505090506000808973ffffffffffffffffffffffffffffffffffffffff168360405161148d9190612223565b6000604051808303816000865af19150503d80600081146114ca576040519150601f19603f3d011682016040523d82523d6000602084013e6114cf565b606091505b509150915081611514576040517f08c379a000000000000000000000000000000000000000000000000000000000815260040161150b90612286565b60405180910390fd5b6000808973ffffffffffffffffffffffffffffffffffffffff1689898960405161153f9291906123aa565b60006040518083038185875af1925050503d806000811461157c576040519150601f19603f3d011682016040523d82523d6000602084013e611581565b606091505b5091509150816115c6576040517f08c379a00000000000000000000000000000000000000000000000000000000081526004016115bd906126ce565b60405180910390fd5b8973ffffffffffffffffffffffffffffffffffffffff167fcaf938de11c367272220bfd1d2baa99ca46665e7bc4d85f00adb51b90fe1fa9f8a8a8a6040516116109392919061271b565b60405180910390a280955050505050509695505050505050565b60008054906101000a900473ffffffffffffffffffffffffffffffffffffffff1673ffffffffffffffffffffffffffffffffffffffff163373ffffffffffffffffffffffffffffffffffffffff16146116b8576040517f08c379a00000000000000000000000000000000000000000000000000000000081526004016116af9061253e565b60405180910390fd5b600073ffffffffffffffffffffffffffffffffffffffff168173ffffffffffffffffffffffffffffffffffffffff1603611727576040517f08c379a000000000000000000000000000000000000000000000000000000000815260040161171e906127bf565b60405180910390fd5b806000806101000a81548173ffffffffffffffffffffffffffffffffffffffff021916908373ffffffffffffffffffffffffffffffffffffffff16021790555050565b600080fd5b600080fd5b600073ffffffffffffffffffffffffffffffffffffffff82169050919050565b600061179f82611774565b9050919050565b6117af81611794565b81146117ba57600080fd5b50565b6000813590506117cc816117a6565b92915050565b6000819050919050565b6117e5816117d2565b81146117f057600080fd5b50565b600081359050611802816117dc565b92915050565b600080fd5b600080fd5b600080fd5b60008083601f84011261182d5761182c611808565b5b8235905067ffffffffffffffff81111561184a5761184961180d565b5b60208301915083602082028301111561186657611865611812565b5b9250929050565b60008083601f84011261188357611882611808565b5b8235905067ffffffffffffffff8111156118a05761189f61180d565b5b6020830191508360208202830111156118bc576118bb611812565b5b9250929050565b60008083601f8401126118d9576118d8611808565b5b8235905067ffffffffffffffff8111156118f6576118f561180d565b5b60208301915083602082028301111561191257611911611812565b5b9250929050565b60008060008060008060008060a0898b0312156119395761193861176a565b5b60006119478b828c016117bd565b98505060206119588b828c016117f3565b975050604089013567ffffffffffffffff8111156119795761197861176f565b5b6119858b828c01611817565b9650965050606089013567ffffffffffffffff8111156119a8576119a761176f565b5b6119b48b828c0161186d565b9450945050608089013567ffffffffffffffff8111156119d7576119d661176f565b5b6119e38b828c016118c3565b92509250509295985092959890939650565b600081519050919050565b600082825260208201905092915050565b6000819050602082019050919050565b600081519050919050565b600082825260208201905092915050565b60005b83811015611a5b578082015181840152602081019050611a40565b60008484015250505050565b6000601f19601f8301169050919050565b6000611a8382611a21565b611a8d8185611a2c565b9350611a9d818560208601611a3d565b611aa681611a67565b840191505092915050565b6000611abd8383611a78565b905092915050565b6000602082019050919050565b6000611add826119f5565b611ae78185611a00565b935083602082028501611af985611a11565b8060005b85811015611b355784840389528151611b168582611ab1565b9450611b2183611ac5565b925060208a01995050600181019050611afd565b50829750879550505050505092915050565b60006020820190508181036000830152611b618184611ad2565b905092915050565b60038110611b7657600080fd5b50565b600081359050611b8881611b69565b92915050565b600060208284031215611ba457611ba361176a565b5b6000611bb284828501611b79565b91505092915050565b60008115159050919050565b611bd081611bbb565b82525050565b6000602082019050611beb6000830184611bc7565b92915050565b60008060008060008060608789031215611c0e57611c0d61176a565b5b600087013567ffffffffffffffff811115611c2c57611c2b61176f565b5b611c3889828a01611817565b9650965050602087013567ffffffffffffffff811115611c5b57611c5a61176f565b5b611c6789828a0161186d565b9450945050604087013567ffffffffffffffff811115611c8a57611c8961176f565b5b611c9689828a016118c3565b92509250509295509295509295565b60008060408385031215611cbc57611cbb61176a565b5b6000611cca858286016117bd565b9250506020611cdb858286016117f3565b9150509250929050565b611cee81611794565b82525050565b6000602082019050611d096000830184611ce5565b92915050565b60008083601f840112611d2557611d24611808565b5b8235905067ffffffffffffffff811115611d4257611d4161180d565b5b602083019150836001820283011115611d5e57611d5d611812565b5b9250929050565b60008060008060608587031215611d7f57611d7e61176a565b5b6000611d8d878288016117bd565b9450506020611d9e878288016117f3565b935050604085013567ffffffffffffffff811115611dbf57611dbe61176f565b5b611dcb87828801611d0f565b925092505092959194509250565b600082825260208201905092915050565b6000611df582611a21565b611dff8185611dd9565b9350611e0f818560208601611a3d565b611e1881611a67565b840191505092915050565b60006020820190508181036000830152611e3d8184611dea565b905092915050565b600060208284031215611e5b57611e5a61176a565b5b6000611e69848285016117bd565b91505092915050565b611e7b816117d2565b82525050565b6000602082019050611e966000830184611e72565b92915050565b60008060008060008060a08789031215611eb957611eb861176a565b5b6000611ec789828a016117bd565b9650506020611ed889828a016117f3565b9550506040611ee989828a016117bd565b9450506060611efa89828a016117f3565b935050608087013567ffffffffffffffff811115611f1b57611f1a61176f565b5b611f2789828a01611d0f565b92509250509295509295509295565b600082825260208201905092915050565b7f536d6172744163636f756e743a2063616c6c6572206973206e6f74206175746860008201527f6f72697a65640000000000000000000000000000000000000000000000000000602082015250565b6000611fa3602683611f36565b9150611fae82611f47565b604082019050919050565b60006020820190508181036000830152611fd281611f96565b9050919050565b7f4e487b7100000000000000000000000000000000000000000000000000000000600052602160045260246000fd5b7f536d6172744163636f756e743a2042617463685472616e73616374696f6e732060008201527f66656174757265206e6f7420656e61626c656400000000000000000000000000602082015250565b6000612064603383611f36565b915061206f82612008565b604082019050919050565b6000602082019050818103600083015261209381612057565b9050919050565b7f536d6172744163636f756e743a20476173546f6b656e5061796d656e7420666560008201527f6174757265206e6f7420656e61626c6564000000000000000000000000000000602082015250565b60006120f6603183611f36565b91506121018261209a565b604082019050919050565b60006020820190508181036000830152612125816120e9565b9050919050565b7f536d6172744163636f756e743a206172726179206c656e67746873206d69736d60008201527f6174636800000000000000000000000000000000000000000000000000000000602082015250565b6000612188602483611f36565b91506121938261212c565b604082019050919050565b600060208201905081810360008301526121b78161217b565b9050919050565b60006040820190506121d36000830185611ce5565b6121e06020830184611e72565b9392505050565b600081905092915050565b60006121fd82611a21565b61220781856121e7565b9350612217818560208601611a3d565b80840191505092915050565b600061222f82846121f2565b915081905092915050565b7f536d6172744163636f756e743a20676173207061796d656e74206661696c6564600082015250565b6000612270602083611f36565b915061227b8261223a565b602082019050919050565b6000602082019050818103600083015261229f81612263565b9050919050565b7f4e487b7100000000000000000000000000000000000000000000000000000000600052604160045260246000fd5b7f4e487b7100000000000000000000000000000000000000000000000000000000600052603260045260246000fd5b600080fd5b600080fd5b600080fd5b600080833560016020038436030381126123305761232f612304565b5b80840192508235915067ffffffffffffffff82111561235257612351612309565b5b60208301925060018202360383131561236e5761236d61230e565b5b509250929050565b82818337600083830152505050565b600061239183856121e7565b935061239e838584612376565b82840190509392505050565b60006123b7828486612385565b91508190509392505050565b7f536d6172744163636f756e743a20626174636820657865637574696f6e20666160008201527f696c656400000000000000000000000000000000000000000000000000000000602082015250565b600061241f602483611f36565b915061242a826123c3565b604082019050919050565b6000602082019050818103600083015261244e81612412565b9050919050565b7f4e487b7100000000000000000000000000000000000000000000000000000000600052601160045260246000fd5b600061248f826117d2565b91507fffffffffffffffffffffffffffffffffffffffffffffffffffffffffffffffff82036124c1576124c0612455565b5b600182019050919050565b7f536d6172744163636f756e743a2063616c6c6572206973206e6f74207468652060008201527f6f776e6572000000000000000000000000000000000000000000000000000000602082015250565b6000612528602583611f36565b9150612533826124cc565b604082019050919050565b600060208201905081810360008301526125578161251b565b9050919050565b7f536d6172744163636f756e743a2053657373696f6e4b6579732066656174757260008201527f65206e6f7420656e61626c656400000000000000000000000000000000000000602082015250565b60006125ba602d83611f36565b91506125c58261255e565b604082019050919050565b600060208201905081810360008301526125e9816125ad565b9050919050565b7f536d6172744163636f756e743a20457870697279206d75737420626520696e2060008201527f7468652066757475726500000000000000000000000000000000000000000000602082015250565b600061264c602a83611f36565b9150612657826125f0565b604082019050919050565b6000602082019050818103600083015261267b8161263f565b9050919050565b7f536d6172744163636f756e743a20657865637574696f6e206661696c65640000600082015250565b60006126b8601e83611f36565b91506126c382612682565b602082019050919050565b600060208201905081810360008301526126e7816126ab565b9050919050565b60006126fa8385611dd9565b9350612707838584612376565b61271083611a67565b840190509392505050565b60006040820190506127306000830186611e72565b81810360208301526127438184866126ee565b9050949350505050565b7f536d6172744163636f756e743a206e6577206f776e657220697320746865207a60008201527f65726f2061646472657373000000000000000000000000000000000000000000602082015250565b60006127a9602b83611f36565b91506127b48261274d565b604082019050919050565b600060208201905081810360008301526127d88161279c565b905091905056fea26469706673582212207f1f4de16b4aae81fa9b133f23809897453d98f7fff98f7b74ef38671b6ca2ac64736f6c63430008130033",
  "linkReferences": {},
  "deployedLinkReferences": {}
}